{
  "contractName": "Governance",
  "abi": [
    {
      "constant": true,
      "inputs": [
        {
          "name": "",
          "type": "uint256"
        }
      ],
      "name": "proposals",
      "outputs": [
        {
          "name": "title",
          "type": "bytes"
        },
        {
          "name": "description",
          "type": "bytes"
        },
        {
          "name": "id",
          "type": "uint256"
        },
        {
          "name": "voteWeightFor",
          "type": "uint256"
        },
        {
          "name": "voteWeightAgainst",
          "type": "uint256"
        },
        {
          "name": "startTime",
          "type": "uint256"
        },
        {
          "name": "result",
          "type": "bool"
        },
        {
          "name": "resulted",
          "type": "bool"
        }
      ],
      "payable": false,
      "stateMutability": "view",
      "type": "function"
    },
    {
      "constant": true,
      "inputs": [],
      "name": "timeLimit",
      "outputs": [
        {
          "name": "",
          "type": "uint256"
        }
      ],
      "payable": false,
      "stateMutability": "view",
      "type": "function"
    },
    {
      "constant": true,
      "inputs": [],
      "name": "token",
      "outputs": [
        {
          "name": "",
          "type": "address"
        }
      ],
      "payable": false,
      "stateMutability": "view",
      "type": "function"
    },
    {
      "inputs": [
        {
          "name": "_timeLimit",
          "type": "uint256"
        },
        {
          "name": "_token",
          "type": "address"
        }
      ],
      "payable": false,
      "stateMutability": "nonpayable",
      "type": "constructor"
    },
    {
      "constant": false,
      "inputs": [
        {
          "name": "_title",
          "type": "bytes"
        },
        {
          "name": "_description",
          "type": "bytes"
        }
      ],
      "name": "submitProposal",
      "outputs": [],
      "payable": false,
      "stateMutability": "nonpayable",
      "type": "function"
    },
    {
      "constant": false,
      "inputs": [
        {
          "name": "_proposalId",
          "type": "uint256"
        },
        {
          "name": "_support",
          "type": "bool"
        }
      ],
      "name": "submitVote",
      "outputs": [],
      "payable": false,
      "stateMutability": "nonpayable",
      "type": "function"
    },
    {
      "constant": false,
      "inputs": [
        {
          "name": "_proposalId",
          "type": "uint256"
        }
      ],
      "name": "result",
      "outputs": [],
      "payable": false,
      "stateMutability": "nonpayable",
      "type": "function"
    },
    {
      "constant": true,
      "inputs": [],
      "name": "getProposalsLength",
      "outputs": [
        {
          "name": "",
          "type": "uint256"
        }
      ],
      "payable": false,
      "stateMutability": "view",
      "type": "function"
    }
  ],
  "bytecode": "0x608060405234801561001057600080fd5b50604051604080610fbb8339810180604052604081101561003057600080fd5b81019080805190602001909291908051906020019092919050505081600481905550806000806101000a81548173ffffffffffffffffffffffffffffffffffffffff021916908373ffffffffffffffffffffffffffffffffffffffff1602179055505050610f18806100a36000396000f3fe608060405234801561001057600080fd5b506004361061007d5760003560e01c8063612c56fa1161005b578063612c56fa14610347578063bc378a7314610381578063c08d1fe51461039f578063fc0c546a146103bd5761007d565b8063013cf08b146100825780633c594059146101c7578063474d7f35146101f5575b600080fd5b6100ae6004803603602081101561009857600080fd5b8101908080359060200190929190505050610407565b604051808060200180602001898152602001888152602001878152602001868152602001851515151581526020018415151515815260200183810383528b818151815260200191508051906020019080838360005b8381101561011e578082015181840152602081019050610103565b50505050905090810190601f16801561014b5780820380516001836020036101000a031916815260200191505b5083810382528a818151815260200191508051906020019080838360005b83811015610184578082015181840152602081019050610169565b50505050905090810190601f1680156101b15780820380516001836020036101000a031916815260200191505b509a505050505050505050505060405180910390f35b6101f3600480360360208110156101dd57600080fd5b81019080803590602001909291905050506105a6565b005b6103456004803603604081101561020b57600080fd5b810190808035906020019064010000000081111561022857600080fd5b82018360208201111561023a57600080fd5b8035906020019184600183028401116401000000008311171561025c57600080fd5b91908080601f016020809104026020016040519081016040528093929190818152602001838380828437600081840152601f19601f820116905080830192505050505050509192919290803590602001906401000000008111156102bf57600080fd5b8201836020820111156102d157600080fd5b803590602001918460018302840111640100000000831117156102f357600080fd5b91908080601f016020809104026020016040519081016040528093929190818152602001838380828437600081840152601f19601f8201169050808301925050505050505091929192905050506108a2565b005b61037f6004803603604081101561035d57600080fd5b81019080803590602001909291908035151590602001909291905050506109cd565b005b610389610d75565b6040518082815260200191505060405180910390f35b6103a7610d82565b6040518082815260200191505060405180910390f35b6103c5610d88565b604051808273ffffffffffffffffffffffffffffffffffffffff1673ffffffffffffffffffffffffffffffffffffffff16815260200191505060405180910390f35b6001818154811061041457fe5b9060005260206000209060070201600091509050806000018054600181600116156101000203166002900480601f0160208091040260200160405190810160405280929190818152602001828054600181600116156101000203166002900480156104c05780601f10610495576101008083540402835291602001916104c0565b820191906000526020600020905b8154815290600101906020018083116104a357829003601f168201915b505050505090806001018054600181600116156101000203166002900480601f01602080910402602001604051908101604052809291908181526020018280546001816001161561010002031660029004801561055e5780601f106105335761010080835404028352916020019161055e565b820191906000526020600020905b81548152906001019060200180831161054157829003601f168201915b5050505050908060020154908060030154908060040154908060050154908060060160009054906101000a900460ff16908060060160019054906101000a900460ff16905088565b6105ae610dad565b600182815481106105bb57fe5b906000526020600020906007020160405180610100016040529081600082018054600181600116156101000203166002900480601f01602080910402602001604051908101604052809291908181526020018280546001816001161561010002031660029004801561066e5780601f106106435761010080835404028352916020019161066e565b820191906000526020600020905b81548152906001019060200180831161065157829003601f168201915b50505050508152602001600182018054600181600116156101000203166002900480601f0160208091040260200160405190810160405280929190818152602001828054600181600116156101000203166002900480156107105780601f106106e557610100808354040283529160200191610710565b820191906000526020600020905b8154815290600101906020018083116106f357829003601f168201915b50505050508152602001600282015481526020016003820154815260200160048201548152602001600582015481526020016006820160009054906101000a900460ff161515151581526020016006820160019054906101000a900460ff1615151515815250509050426004548260a001510111156107da576040517f08c379a0000000000000000000000000000000000000000000000000000000008152600401808060200182810382526029815260200180610e9c6029913960400191505060405180910390fd5b60018083815481106107e857fe5b906000526020600020906007020160060160016101000a81548160ff02191690831515021790555080608001518160600151111561085757600180838154811061082e57fe5b906000526020600020906007020160060160006101000a81548160ff0219169083151502179055505b806060015181608001511061089e5760006001838154811061087557fe5b906000526020600020906007020160060160006101000a81548160ff0219169083151502179055505b5050565b6001604051806101000160405280848152602001838152602001600354815260200160008152602001600081526020014281526020016000151581526020016000151581525090806001815401808255809150509060018203906000526020600020906007020160009091929091909150600082015181600001908051906020019061092f929190610df6565b50602082015181600101908051906020019061094c929190610df6565b5060408201518160020155606082015181600301556080820151816004015560a0820151816005015560c08201518160060160006101000a81548160ff02191690831515021790555060e08201518160060160016101000a81548160ff02191690831515021790555050505060016003600082825401925050819055505050565b6000600260003373ffffffffffffffffffffffffffffffffffffffff1673ffffffffffffffffffffffffffffffffffffffff16815260200190815260200160002060010160008481526020019081526020016000209050600015158160020160009054906101000a900460ff16151514610a92576040517f08c379a0000000000000000000000000000000000000000000000000000000008152600401808060200182810382526028815260200180610ec56028913960400191505060405180910390fd5b4260045460018581548110610aa357fe5b9060005260206000209060070201600501540111610b29576040517f08c379a000000000000000000000000000000000000000000000000000000000815260040180806020018281038252601e8152602001807f54686520766f74696e6720706572696f642068617320657870697265642e000081525060200191505060405180910390fd5b6000809054906101000a900473ffffffffffffffffffffffffffffffffffffffff1673ffffffffffffffffffffffffffffffffffffffff166370a08231336040518263ffffffff1660e01b8152600401808273ffffffffffffffffffffffffffffffffffffffff1673ffffffffffffffffffffffffffffffffffffffff16815260200191505060206040518083038186803b158015610bc757600080fd5b505afa158015610bdb573d6000803e3d6000fd5b505050506040513d6020811015610bf157600080fd5b8101908080519060200190929190505050600260003373ffffffffffffffffffffffffffffffffffffffff1673ffffffffffffffffffffffffffffffffffffffff1681526020019081526020016000206000018190555060018160020160006101000a81548160ff021916908315150217905550818160000160006101000a81548160ff021916908315150217905550600115158215151415610d0157600260003373ffffffffffffffffffffffffffffffffffffffff1673ffffffffffffffffffffffffffffffffffffffff1681526020019081526020016000206000015460018481548110610cde57fe5b906000526020600020906007020160030160008282540192505081905550610d70565b600260003373ffffffffffffffffffffffffffffffffffffffff1673ffffffffffffffffffffffffffffffffffffffff1681526020019081526020016000206000015460018481548110610d5157fe5b9060005260206000209060070201600401600082825401925050819055505b505050565b6000600180549050905090565b60045481565b6000809054906101000a900473ffffffffffffffffffffffffffffffffffffffff1681565b6040518061010001604052806060815260200160608152602001600081526020016000815260200160008152602001600081526020016000151581526020016000151581525090565b828054600181600116156101000203166002900490600052602060002090601f016020900481019282601f10610e3757805160ff1916838001178555610e65565b82800160010185558215610e65579182015b82811115610e64578251825591602001919060010190610e49565b5b509050610e729190610e76565b5090565b610e9891905b80821115610e94576000816000905550600101610e7c565b5090565b9056fe5468657265206973207374696c6c2074696d65206c65667420696e207468652070726f706f73616c2e596f75206861766520616c726561647920766f746564206f6e20746869732070726f706f73616c2ea165627a7a72305820d278ca5c812555d9ba3e3506a3f3c0d0f78ab3159603e35bbbda6497d72f50b40029",
  "source": "pragma solidity 0.5.8;\r\n\r\nimport './lib/SafeMath.sol';\r\n\r\ninterface ERC20 {\r\n    function balanceOf(address guy) external view returns (uint);\r\n}\r\n\r\n/// @title Governance Protocol\r\ncontract Governance {\r\n    using SafeMath for uint256;\r\n\r\n    struct Proposal {\r\n        bytes title; // proposal title\r\n        bytes description; // proposal description\r\n        uint id; // proposal id\r\n        uint voteWeightFor; // vote weight in support\r\n        uint voteWeightAgainst; // vote weight against\r\n        uint startTime; // start time since epoch\r\n        bool result; // result of proposal\r\n        bool resulted; // has someone called the result?\r\n    }\r\n\r\n    struct Vote {\r\n        bool support; // if true: for; if false: against\r\n        uint weight; // weight of vote\r\n        bool voted; // has the user voted for this proposal already?\r\n    }\r\n\r\n    struct Voter {\r\n        uint weight; // based on amount of funds locked in contract\r\n        mapping(uint => Vote) votes; // map proposal id to vote\r\n    }\r\n\r\n    // ERC20 token\r\n    ERC20 public token;\r\n\r\n    Proposal[] public proposals;\r\n    mapping(address => Voter) private voters;\r\n\r\n    // Next id to be used for proposals\r\n    uint private nextId;\r\n\r\n    // Time limit to vote on proposals (in seconds)\r\n    uint public timeLimit;\r\n\r\n    // Set time limit and token contract address\r\n    constructor(uint _timeLimit, address _token) public {\r\n        timeLimit = _timeLimit;\r\n        token = ERC20(_token);\r\n    }\r\n\r\n    // Submit a proposal for others to vote on\r\n    function submitProposal(bytes memory _title, bytes memory _description) public {\r\n        proposals.push(Proposal({\r\n            result: false,\r\n            title: _title,\r\n            description: _description,\r\n            id: nextId,\r\n            voteWeightFor: 0,\r\n            voteWeightAgainst: 0,\r\n            startTime: now,\r\n            resulted: false\r\n        }));\r\n        nextId += 1;\r\n    }\r\n\r\n    // Vote for or against a proposal\r\n    function submitVote(uint _proposalId, bool _support) public {\r\n        Vote storage vote = voters[msg.sender].votes[_proposalId];\r\n        // Prevent voter from voting on same proposal more than once\r\n        require(vote.voted == false, 'You have already voted on this proposal.');\r\n        require(proposals[_proposalId].startTime + timeLimit > now, 'The voting period has expired.');\r\n\r\n        voters[msg.sender].weight = token.balanceOf(msg.sender);\r\n\r\n        vote.voted = true;\r\n        vote.support = _support;\r\n\r\n        if(_support == true) {\r\n            proposals[_proposalId].voteWeightFor += voters[msg.sender].weight;\r\n        } else {\r\n            proposals[_proposalId].voteWeightAgainst += voters[msg.sender].weight;\r\n        }\r\n    }\r\n\r\n    // Show the result of a proposal\r\n    function result(uint _proposalId) public {\r\n        Proposal memory proposal = proposals[_proposalId];\r\n        // Ensure the proposal duration is complete\r\n        require((proposal.startTime + timeLimit) <= now, 'There is still time left in the proposal.');\r\n\r\n        proposals[_proposalId].resulted = true;\r\n\r\n        if(proposal.voteWeightFor > proposal.voteWeightAgainst) {\r\n            proposals[_proposalId].result = true;\r\n        }\r\n        // If there is a draw, the proposal is not passed\r\n        if(proposal.voteWeightAgainst >= proposal.voteWeightFor) {\r\n            proposals[_proposalId].result = false;\r\n        }\r\n    }\r\n\r\n    function getProposalsLength() public view returns(uint) {\r\n        return proposals.length;\r\n    }\r\n}\r\n",
  "sourcePath": "C:\\Users\\kaden\\Documents\\code\\governance-protocol\\contracts\\Governance.sol",
  "compiler": {
    "name": "solc",
    "version": "0.5.8+commit.23d335f2.Emscripten.clang"
  },
  "schemaVersion": "3.0.17",
  "updatedAt": "2020-02-24T00:18:42.545Z",
  "devdoc": {
    "methods": {},
    "title": "Governance Protocol"
  },
  "userdoc": {
    "methods": {}
  }
}