{
  "contractName": "Governance",
  "abi": [
    {
      "constant": true,
      "inputs": [
        {
          "name": "",
          "type": "uint256"
        }
      ],
      "name": "proposals",
      "outputs": [
        {
          "name": "name",
          "type": "string"
        },
        {
          "name": "id",
          "type": "uint256"
        },
        {
          "name": "voteWeightFor",
          "type": "uint256"
        },
        {
          "name": "voteWeightAgainst",
          "type": "uint256"
        },
        {
          "name": "startTime",
          "type": "uint256"
        }
      ],
      "payable": false,
      "stateMutability": "view",
      "type": "function"
    },
    {
      "constant": true,
      "inputs": [
        {
          "name": "",
          "type": "address"
        }
      ],
      "name": "voters",
      "outputs": [
        {
          "name": "weight",
          "type": "uint256"
        },
        {
          "name": "delegated",
          "type": "bool"
        }
      ],
      "payable": false,
      "stateMutability": "view",
      "type": "function"
    },
    {
      "constant": true,
      "inputs": [],
      "name": "timeLimit",
      "outputs": [
        {
          "name": "",
          "type": "uint256"
        }
      ],
      "payable": false,
      "stateMutability": "view",
      "type": "function"
    },
    {
      "inputs": [
        {
          "name": "_timeLimit",
          "type": "uint256"
        }
      ],
      "payable": false,
      "stateMutability": "nonpayable",
      "type": "constructor"
    },
    {
      "constant": false,
      "inputs": [
        {
          "name": "_delegate",
          "type": "address"
        }
      ],
      "name": "delegate",
      "outputs": [],
      "payable": false,
      "stateMutability": "nonpayable",
      "type": "function"
    },
    {
      "constant": false,
      "inputs": [
        {
          "name": "_name",
          "type": "string"
        }
      ],
      "name": "submitProposal",
      "outputs": [],
      "payable": false,
      "stateMutability": "nonpayable",
      "type": "function"
    },
    {
      "constant": false,
      "inputs": [
        {
          "name": "_proposalId",
          "type": "uint256"
        },
        {
          "name": "_support",
          "type": "bool"
        }
      ],
      "name": "submitVote",
      "outputs": [],
      "payable": false,
      "stateMutability": "nonpayable",
      "type": "function"
    },
    {
      "constant": true,
      "inputs": [
        {
          "name": "_proposalId",
          "type": "uint256"
        }
      ],
      "name": "result",
      "outputs": [
        {
          "name": "",
          "type": "bool"
        }
      ],
      "payable": false,
      "stateMutability": "view",
      "type": "function"
    },
    {
      "constant": true,
      "inputs": [],
      "name": "getProposalsLength",
      "outputs": [
        {
          "name": "",
          "type": "uint256"
        }
      ],
      "payable": false,
      "stateMutability": "view",
      "type": "function"
    }
  ],
  "bytecode": "0x608060405234801561001057600080fd5b506040516020806110048339810180604052602081101561003057600080fd5b81019080805190602001909291905050508060038190555050610fac806100586000396000f3fe608060405234801561001057600080fd5b50600436106100885760003560e01c8063612c56fa1161005b578063612c56fa14610295578063a3ec138d146102cf578063bc378a7314610332578063c08d1fe51461035057610088565b8063013cf08b1461008d578063373d6d5e146101505780633c5940591461020b5780635c19a95c14610251575b600080fd5b6100b9600480360360208110156100a357600080fd5b810190808035906020019092919050505061036e565b6040518080602001868152602001858152602001848152602001838152602001828103825287818151815260200191508051906020019080838360005b838110156101115780820151818401526020810190506100f6565b50505050905090810190601f16801561013e5780820380516001836020036101000a031916815260200191505b50965050505050505060405180910390f35b6102096004803603602081101561016657600080fd5b810190808035906020019064010000000081111561018357600080fd5b82018360208201111561019557600080fd5b803590602001918460018302840111640100000000831117156101b757600080fd5b91908080601f016020809104026020016040519081016040528093929190818152602001838380828437600081840152601f19601f820116905080830192505050505050509192919290505050610449565b005b6102376004803603602081101561022157600080fd5b81019080803590602001909291905050506104fd565b604051808215151515815260200191505060405180910390f35b6102936004803603602081101561026757600080fd5b81019080803573ffffffffffffffffffffffffffffffffffffffff169060200190929190505050610694565b005b6102cd600480360360408110156102ab57600080fd5b8101908080359060200190929190803515159060200190929190505050610860565b005b610311600480360360208110156102e557600080fd5b81019080803573ffffffffffffffffffffffffffffffffffffffff169060200190929190505050610dc7565b60405180838152602001821515151581526020019250505060405180910390f35b61033a610df8565b6040518082815260200191505060405180910390f35b610358610e04565b6040518082815260200191505060405180910390f35b6000818154811061037b57fe5b9060005260206000209060050201600091509050806000018054600181600116156101000203166002900480601f0160208091040260200160405190810160405280929190818152602001828054600181600116156101000203166002900480156104275780601f106103fc57610100808354040283529160200191610427565b820191906000526020600020905b81548152906001019060200180831161040a57829003601f168201915b5050505050908060010154908060020154908060030154908060040154905085565b60006040518060a0016040528083815260200160025481526020016000815260200160008152602001428152509080600181540180825580915050906001820390600052602060002090600502016000909192909190915060008201518160000190805190602001906104bd929190610e0a565b5060208201518160010155604082015181600201556060820151816003015560808201518160040155505050600160026000828254019250508190555050565b6000610507610e8a565b6000838154811061051457fe5b90600052602060002090600502016040518060a0016040529081600082018054600181600116156101000203166002900480601f0160208091040260200160405190810160405280929190818152602001828054600181600116156101000203166002900480156105c65780601f1061059b576101008083540402835291602001916105c6565b820191906000526020600020905b8154815290600101906020018083116105a957829003601f168201915b50505050508152602001600182015481526020016002820154815260200160038201548152602001600482015481525050905042600354826080015101111561065a576040517f08c379a0000000000000000000000000000000000000000000000000000000008152600401808060200182810382526029815260200180610f306029913960400191505060405180910390fd5b80606001518160400151111561067457600191505061068f565b806040015181606001511061068d57600091505061068f565b505b919050565b60001515600160003373ffffffffffffffffffffffffffffffffffffffff1673ffffffffffffffffffffffffffffffffffffffff16815260200190815260200160002060030160009054906101000a900460ff1615151461075d576040517f08c379a000000000000000000000000000000000000000000000000000000000815260040180806020018281038252601b8152602001807f596f752063616e206f6e6c792064656c6567617465206f6e63652e000000000081525060200191505060405180910390fd5b60018060003373ffffffffffffffffffffffffffffffffffffffff1673ffffffffffffffffffffffffffffffffffffffff16815260200190815260200160002060030160006101000a81548160ff021916908315150217905550600160008273ffffffffffffffffffffffffffffffffffffffff1673ffffffffffffffffffffffffffffffffffffffff1681526020019081526020016000206000013390806001815401808255809150509060018203906000526020600020016000909192909190916101000a81548173ffffffffffffffffffffffffffffffffffffffff021916908373ffffffffffffffffffffffffffffffffffffffff1602179055505050565b6000600160003373ffffffffffffffffffffffffffffffffffffffff1673ffffffffffffffffffffffffffffffffffffffff16815260200190815260200160002060020160008481526020019081526020016000209050600015158160020160009054906101000a900460ff16151514610925576040517f08c379a0000000000000000000000000000000000000000000000000000000008152600401808060200182810382526028815260200180610f596028913960400191505060405180910390fd5b426003546000858154811061093657fe5b90600052602060002090600502016004015401116109bc576040517f08c379a000000000000000000000000000000000000000000000000000000000815260040180806020018281038252601e8152602001807f54686520766f74696e6720706572696f642068617320657870697265642e000081525060200191505060405180910390fd5b6109c4610eb9565b600160003373ffffffffffffffffffffffffffffffffffffffff1673ffffffffffffffffffffffffffffffffffffffff16815260200190815260200160002060405180606001604052908160008201805480602002602001604051908101604052809291908181526020018280548015610a9357602002820191906000526020600020905b8160009054906101000a900473ffffffffffffffffffffffffffffffffffffffff1673ffffffffffffffffffffffffffffffffffffffff1681526020019060010190808311610a49575b50505050508152602001600182015481526020016003820160009054906101000a900460ff161515151581525050905060001515600160003373ffffffffffffffffffffffffffffffffffffffff1673ffffffffffffffffffffffffffffffffffffffff16815260200190815260200160002060030160009054906101000a900460ff16151514610b6f576040517f08c379a000000000000000000000000000000000000000000000000000000000815260040180806020018281038252602e815260200180610f02602e913960400191505060405180910390fd5b60008160000151511115610c3a5760003373ffffffffffffffffffffffffffffffffffffffff1631905060008090505b826000015151811015610bec5782600001518181518110610bbc57fe5b602002602001015173ffffffffffffffffffffffffffffffffffffffff1631820191508080600101915050610b9f565b5080600160003373ffffffffffffffffffffffffffffffffffffffff1673ffffffffffffffffffffffffffffffffffffffff1681526020019081526020016000206001018190555050610c99565b3373ffffffffffffffffffffffffffffffffffffffff1631600160003373ffffffffffffffffffffffffffffffffffffffff1673ffffffffffffffffffffffffffffffffffffffff168152602001908152602001600020600101819055505b60018260020160006101000a81548160ff021916908315150217905550828260000160006101000a81548160ff021916908315150217905550600115158315151415610d5257600160003373ffffffffffffffffffffffffffffffffffffffff1673ffffffffffffffffffffffffffffffffffffffff1681526020019081526020016000206001015460008581548110610d2f57fe5b906000526020600020906005020160020160008282540192505081905550610dc1565b600160003373ffffffffffffffffffffffffffffffffffffffff1673ffffffffffffffffffffffffffffffffffffffff1681526020019081526020016000206001015460008581548110610da257fe5b9060005260206000209060050201600301600082825401925050819055505b50505050565b60016020528060005260406000206000915090508060010154908060030160009054906101000a900460ff16905082565b60008080549050905090565b60035481565b828054600181600116156101000203166002900490600052602060002090601f016020900481019282601f10610e4b57805160ff1916838001178555610e79565b82800160010185558215610e79579182015b82811115610e78578251825591602001919060010190610e5d565b5b509050610e869190610edc565b5090565b6040518060a0016040528060608152602001600081526020016000815260200160008152602001600081525090565b604051806060016040528060608152602001600081526020016000151581525090565b610efe91905b80821115610efa576000816000905550600101610ee2565b5090565b9056fe596f752063616e6e6f7420766f746520696620796f75206861766520616c72656164792064656c6567617465642e5468657265206973207374696c6c2074696d65206c65667420696e207468652070726f706f73616c2e596f75206861766520616c726561647920766f746564206f6e20746869732070726f706f73616c2ea165627a7a723058204917f9b2a9789f9aadac244c37b4c23367b2deb1c41380d7eeffeac1f15319fc0029",
  "source": "pragma solidity ^0.5.0;\r\n\r\n/// @title Governance Protocol\r\ncontract Governance {\r\n    struct Proposal {\r\n        string name; // proposal name\r\n        uint id; // proposal id\r\n        uint voteWeightFor; // vote weight in support\r\n        uint voteWeightAgainst; // vote weight against\r\n        uint startTime; // start time since epoch\r\n    }\r\n\r\n    struct Vote {\r\n        bool support; // if true: for; if false: against\r\n        uint weight; // weight of vote\r\n        bool voted; // has the user voted for this proposal already?\r\n    }\r\n\r\n    struct Voter {\r\n        address[] delegatees; // voter that delegated weight to this address\r\n        uint weight; // based on amount of funds locked in contract\r\n        mapping(uint => Vote) votes; // map proposal id to vote\r\n        bool delegated; // has the voter already delegated?\r\n    }\r\n\r\n    Proposal[] public proposals;\r\n    mapping(address => Voter) public voters;\r\n\r\n    // Next id to be used for proposals\r\n    uint nextId;\r\n\r\n    // Time limit to vote on proposals (in seconds)\r\n    uint public timeLimit;\r\n\r\n    // Upon contract instantiation, set time limit\r\n    constructor(uint _timeLimit) public {\r\n        timeLimit = _timeLimit;\r\n    }\r\n\r\n    // Pick a delegate to pass your voting weight on to\r\n    // Delegated voting power is only used for future votes\r\n    function delegate(address _delegate) public {\r\n        require(voters[msg.sender].delegated == false, 'You can only delegate once.');\r\n        voters[msg.sender].delegated = true;\r\n        voters[_delegate].delegatees.push(msg.sender);\r\n    }\r\n\r\n    // Submit a proposal for others to vote on\r\n    function submitProposal(string memory _name) public {\r\n        proposals.push(Proposal({\r\n            name: _name,\r\n            id: nextId,\r\n            voteWeightFor: 0,\r\n            voteWeightAgainst: 0,\r\n            startTime: now\r\n        }));\r\n        nextId += 1;\r\n    }\r\n\r\n    // Vote for or against a proposal\r\n    function submitVote(uint _proposalId, bool _support) public {\r\n        Vote storage vote = voters[msg.sender].votes[_proposalId];\r\n        // Prevent voter from voting on same proposal more than once\r\n        require(vote.voted == false, 'You have already voted on this proposal.');\r\n        require(proposals[_proposalId].startTime + timeLimit > now, 'The voting period has expired.');\r\n\r\n        Voter memory voter = voters[msg.sender];\r\n        require(voters[msg.sender].delegated == false, 'You cannot vote if you have already delegated.');\r\n\r\n        if(voter.delegatees.length > 0) {\r\n            uint weight = msg.sender.balance;\r\n            for(uint i = 0; i < voter.delegatees.length; i++) {\r\n                weight += voter.delegatees[i].balance;\r\n            }\r\n            voters[msg.sender].weight = weight;\r\n        } else {\r\n            voters[msg.sender].weight = msg.sender.balance;\r\n        }\r\n\r\n        vote.voted = true;\r\n        vote.support = _support;\r\n\r\n        if(_support == true) {\r\n            proposals[_proposalId].voteWeightFor += voters[msg.sender].weight;\r\n        } else {\r\n            proposals[_proposalId].voteWeightAgainst += voters[msg.sender].weight;\r\n        }\r\n    }\r\n\r\n    // Show the result of a proposal\r\n    function result(uint _proposalId) public view returns(bool) {\r\n        Proposal memory proposal = proposals[_proposalId];\r\n        // Ensure the proposal duration is complete\r\n        require((proposal.startTime + timeLimit) <= now, 'There is still time left in the proposal.');\r\n        if(proposal.voteWeightFor > proposal.voteWeightAgainst) {\r\n            return true;\r\n        }\r\n        // If there is a draw, the proposal is not passed\r\n        if(proposal.voteWeightAgainst >= proposal.voteWeightFor) {\r\n            return false;\r\n        }\r\n    }\r\n\r\n    function getProposalsLength() public view returns(uint) {\r\n        return proposals.length;\r\n    }\r\n}\r\n",
  "sourcePath": "C:/Users/kaden/Documents/code/governance-protocol/contracts/Governance.sol",
  "compiler": {
    "name": "solc",
    "version": "0.5.8+commit.23d335f2.Emscripten.clang"
  },
  "schemaVersion": "3.0.16",
  "updatedAt": "2019-10-15T02:46:20.472Z",
  "devdoc": {
    "methods": {},
    "title": "Governance Protocol"
  },
  "userdoc": {
    "methods": {}
  }
}