{
  "contractName": "Governance",
  "abi": [
    {
      "constant": true,
      "inputs": [
        {
          "name": "",
          "type": "uint256"
        }
      ],
      "name": "proposals",
      "outputs": [
        {
          "name": "name",
          "type": "string"
        },
        {
          "name": "id",
          "type": "uint256"
        },
        {
          "name": "voteWeightFor",
          "type": "uint256"
        },
        {
          "name": "voteWeightAgainst",
          "type": "uint256"
        },
        {
          "name": "startTime",
          "type": "uint256"
        },
        {
          "name": "result",
          "type": "bool"
        }
      ],
      "payable": false,
      "stateMutability": "view",
      "type": "function"
    },
    {
      "constant": true,
      "inputs": [
        {
          "name": "",
          "type": "address"
        }
      ],
      "name": "voters",
      "outputs": [
        {
          "name": "weight",
          "type": "uint256"
        },
        {
          "name": "delegated",
          "type": "bool"
        }
      ],
      "payable": false,
      "stateMutability": "view",
      "type": "function"
    },
    {
      "constant": true,
      "inputs": [],
      "name": "timeLimit",
      "outputs": [
        {
          "name": "",
          "type": "uint256"
        }
      ],
      "payable": false,
      "stateMutability": "view",
      "type": "function"
    },
    {
      "inputs": [
        {
          "name": "_timeLimit",
          "type": "uint256"
        }
      ],
      "payable": false,
      "stateMutability": "nonpayable",
      "type": "constructor"
    },
    {
      "constant": false,
      "inputs": [
        {
          "name": "_delegate",
          "type": "address"
        }
      ],
      "name": "delegate",
      "outputs": [],
      "payable": false,
      "stateMutability": "nonpayable",
      "type": "function"
    },
    {
      "constant": false,
      "inputs": [
        {
          "name": "_name",
          "type": "string"
        }
      ],
      "name": "submitProposal",
      "outputs": [],
      "payable": false,
      "stateMutability": "nonpayable",
      "type": "function"
    },
    {
      "constant": false,
      "inputs": [
        {
          "name": "_proposalId",
          "type": "uint256"
        },
        {
          "name": "_support",
          "type": "bool"
        }
      ],
      "name": "submitVote",
      "outputs": [],
      "payable": false,
      "stateMutability": "nonpayable",
      "type": "function"
    },
    {
      "constant": false,
      "inputs": [
        {
          "name": "_proposalId",
          "type": "uint256"
        }
      ],
      "name": "result",
      "outputs": [],
      "payable": false,
      "stateMutability": "nonpayable",
      "type": "function"
    },
    {
      "constant": true,
      "inputs": [],
      "name": "getProposalsLength",
      "outputs": [
        {
          "name": "",
          "type": "uint256"
        }
      ],
      "payable": false,
      "stateMutability": "view",
      "type": "function"
    }
  ],
  "bytecode": "0x608060405234801561001057600080fd5b506040516020806110ad8339810180604052602081101561003057600080fd5b81019080805190602001909291905050508060038190555050611055806100586000396000f3fe608060405234801561001057600080fd5b50600436106100885760003560e01c8063612c56fa1161005b578063612c56fa14610288578063a3ec138d146102c2578063bc378a7314610325578063c08d1fe51461034357610088565b8063013cf08b1461008d578063373d6d5e1461015b5780633c594059146102165780635c19a95c14610244575b600080fd5b6100b9600480360360208110156100a357600080fd5b8101908080359060200190929190505050610361565b604051808060200187815260200186815260200185815260200184815260200183151515158152602001828103825288818151815260200191508051906020019080838360005b8381101561011b578082015181840152602081019050610100565b50505050905090810190601f1680156101485780820380516001836020036101000a031916815260200191505b5097505050505050505060405180910390f35b6102146004803603602081101561017157600080fd5b810190808035906020019064010000000081111561018e57600080fd5b8201836020820111156101a057600080fd5b803590602001918460018302840111640100000000831117156101c257600080fd5b91908080601f016020809104026020016040519081016040528093929190818152602001838380828437600081840152601f19601f82011690508083019250505050505050919291929050505061044f565b005b6102426004803603602081101561022c57600080fd5b810190808035906020019092919050505061052c565b005b6102866004803603602081101561025a57600080fd5b81019080803573ffffffffffffffffffffffffffffffffffffffff169060200190929190505050610734565b005b6102c06004803603604081101561029e57600080fd5b8101908080359060200190929190803515159060200190929190505050610900565b005b610304600480360360208110156102d857600080fd5b81019080803573ffffffffffffffffffffffffffffffffffffffff169060200190929190505050610e67565b60405180838152602001821515151581526020019250505060405180910390f35b61032d610e98565b6040518082815260200191505060405180910390f35b61034b610ea4565b6040518082815260200191505060405180910390f35b6000818154811061036e57fe5b9060005260206000209060060201600091509050806000018054600181600116156101000203166002900480601f01602080910402602001604051908101604052809291908181526020018280546001816001161561010002031660029004801561041a5780601f106103ef5761010080835404028352916020019161041a565b820191906000526020600020905b8154815290600101906020018083116103fd57829003601f168201915b5050505050908060010154908060020154908060030154908060040154908060050160009054906101000a900460ff16905086565b60006040518060c0016040528083815260200160025481526020016000815260200160008152602001428152602001600015158152509080600181540180825580915050906001820390600052602060002090600602016000909192909190915060008201518160000190805190602001906104cc929190610eaa565b506020820151816001015560408201518160020155606082015181600301556080820151816004015560a08201518160050160006101000a81548160ff021916908315150217905550505050600160026000828254019250508190555050565b610534610f2a565b6000828154811061054157fe5b90600052602060002090600602016040518060c0016040529081600082018054600181600116156101000203166002900480601f0160208091040260200160405190810160405280929190818152602001828054600181600116156101000203166002900480156105f35780601f106105c8576101008083540402835291602001916105f3565b820191906000526020600020905b8154815290600101906020018083116105d657829003601f168201915b50505050508152602001600182015481526020016002820154815260200160038201548152602001600482015481526020016005820160009054906101000a900460ff16151515158152505090504260035482608001510111156106a2576040517f08c379a0000000000000000000000000000000000000000000000000000000008152600401808060200182810382526029815260200180610fd96029913960400191505060405180910390fd5b8060600151816040015111156106ea576001600083815481106106c157fe5b906000526020600020906006020160050160006101000a81548160ff0219169083151502179055505b806040015181606001511061073057600080838154811061070757fe5b906000526020600020906006020160050160006101000a81548160ff0219169083151502179055505b5050565b60001515600160003373ffffffffffffffffffffffffffffffffffffffff1673ffffffffffffffffffffffffffffffffffffffff16815260200190815260200160002060030160009054906101000a900460ff161515146107fd576040517f08c379a000000000000000000000000000000000000000000000000000000000815260040180806020018281038252601b8152602001807f596f752063616e206f6e6c792064656c6567617465206f6e63652e000000000081525060200191505060405180910390fd5b60018060003373ffffffffffffffffffffffffffffffffffffffff1673ffffffffffffffffffffffffffffffffffffffff16815260200190815260200160002060030160006101000a81548160ff021916908315150217905550600160008273ffffffffffffffffffffffffffffffffffffffff1673ffffffffffffffffffffffffffffffffffffffff1681526020019081526020016000206000013390806001815401808255809150509060018203906000526020600020016000909192909190916101000a81548173ffffffffffffffffffffffffffffffffffffffff021916908373ffffffffffffffffffffffffffffffffffffffff1602179055505050565b6000600160003373ffffffffffffffffffffffffffffffffffffffff1673ffffffffffffffffffffffffffffffffffffffff16815260200190815260200160002060020160008481526020019081526020016000209050600015158160020160009054906101000a900460ff161515146109c5576040517f08c379a00000000000000000000000000000000000000000000000000000000081526004018080602001828103825260288152602001806110026028913960400191505060405180910390fd5b42600354600085815481106109d657fe5b9060005260206000209060060201600401540111610a5c576040517f08c379a000000000000000000000000000000000000000000000000000000000815260040180806020018281038252601e8152602001807f54686520766f74696e6720706572696f642068617320657870697265642e000081525060200191505060405180910390fd5b610a64610f62565b600160003373ffffffffffffffffffffffffffffffffffffffff1673ffffffffffffffffffffffffffffffffffffffff16815260200190815260200160002060405180606001604052908160008201805480602002602001604051908101604052809291908181526020018280548015610b3357602002820191906000526020600020905b8160009054906101000a900473ffffffffffffffffffffffffffffffffffffffff1673ffffffffffffffffffffffffffffffffffffffff1681526020019060010190808311610ae9575b50505050508152602001600182015481526020016003820160009054906101000a900460ff161515151581525050905060001515600160003373ffffffffffffffffffffffffffffffffffffffff1673ffffffffffffffffffffffffffffffffffffffff16815260200190815260200160002060030160009054906101000a900460ff16151514610c0f576040517f08c379a000000000000000000000000000000000000000000000000000000000815260040180806020018281038252602e815260200180610fab602e913960400191505060405180910390fd5b60008160000151511115610cda5760003373ffffffffffffffffffffffffffffffffffffffff1631905060008090505b826000015151811015610c8c5782600001518181518110610c5c57fe5b602002602001015173ffffffffffffffffffffffffffffffffffffffff1631820191508080600101915050610c3f565b5080600160003373ffffffffffffffffffffffffffffffffffffffff1673ffffffffffffffffffffffffffffffffffffffff1681526020019081526020016000206001018190555050610d39565b3373ffffffffffffffffffffffffffffffffffffffff1631600160003373ffffffffffffffffffffffffffffffffffffffff1673ffffffffffffffffffffffffffffffffffffffff168152602001908152602001600020600101819055505b60018260020160006101000a81548160ff021916908315150217905550828260000160006101000a81548160ff021916908315150217905550600115158315151415610df257600160003373ffffffffffffffffffffffffffffffffffffffff1673ffffffffffffffffffffffffffffffffffffffff1681526020019081526020016000206001015460008581548110610dcf57fe5b906000526020600020906006020160020160008282540192505081905550610e61565b600160003373ffffffffffffffffffffffffffffffffffffffff1673ffffffffffffffffffffffffffffffffffffffff1681526020019081526020016000206001015460008581548110610e4257fe5b9060005260206000209060060201600301600082825401925050819055505b50505050565b60016020528060005260406000206000915090508060010154908060030160009054906101000a900460ff16905082565b60008080549050905090565b60035481565b828054600181600116156101000203166002900490600052602060002090601f016020900481019282601f10610eeb57805160ff1916838001178555610f19565b82800160010185558215610f19579182015b82811115610f18578251825591602001919060010190610efd565b5b509050610f269190610f85565b5090565b6040518060c0016040528060608152602001600081526020016000815260200160008152602001600081526020016000151581525090565b604051806060016040528060608152602001600081526020016000151581525090565b610fa791905b80821115610fa3576000816000905550600101610f8b565b5090565b9056fe596f752063616e6e6f7420766f746520696620796f75206861766520616c72656164792064656c6567617465642e5468657265206973207374696c6c2074696d65206c65667420696e207468652070726f706f73616c2e596f75206861766520616c726561647920766f746564206f6e20746869732070726f706f73616c2ea165627a7a7230582081b50eb0a7c47cb4abfbcb16f13481ab413e897a027a0d297db46c7e448a3b180029",
  "source": "pragma solidity ^0.5.0;\r\n\r\n/// @title Governance Protocol\r\ncontract Governance {\r\n    struct Proposal {\r\n        string name; // proposal name\r\n        uint id; // proposal id\r\n        uint voteWeightFor; // vote weight in support\r\n        uint voteWeightAgainst; // vote weight against\r\n        uint startTime; // start time since epoch\r\n        bool result; // result of proposal\r\n    }\r\n\r\n    struct Vote {\r\n        bool support; // if true: for; if false: against\r\n        uint weight; // weight of vote\r\n        bool voted; // has the user voted for this proposal already?\r\n    }\r\n\r\n    struct Voter {\r\n        address[] delegatees; // voter that delegated weight to this address\r\n        uint weight; // based on amount of funds locked in contract\r\n        mapping(uint => Vote) votes; // map proposal id to vote\r\n        bool delegated; // has the voter already delegated?\r\n    }\r\n\r\n    Proposal[] public proposals;\r\n    mapping(address => Voter) public voters;\r\n\r\n    // Next id to be used for proposals\r\n    uint nextId;\r\n\r\n    // Time limit to vote on proposals (in seconds)\r\n    uint public timeLimit;\r\n\r\n    // Upon contract instantiation, set time limit\r\n    constructor(uint _timeLimit) public {\r\n        timeLimit = _timeLimit;\r\n    }\r\n\r\n    // Pick a delegate to pass your voting weight on to\r\n    // Delegated voting power is only used for future votes\r\n    function delegate(address _delegate) public {\r\n        require(voters[msg.sender].delegated == false, 'You can only delegate once.');\r\n        voters[msg.sender].delegated = true;\r\n        voters[_delegate].delegatees.push(msg.sender);\r\n    }\r\n\r\n    // Submit a proposal for others to vote on\r\n    function submitProposal(string memory _name) public {\r\n        proposals.push(Proposal({\r\n            result: false,\r\n            name: _name,\r\n            id: nextId,\r\n            voteWeightFor: 0,\r\n            voteWeightAgainst: 0,\r\n            startTime: now\r\n        }));\r\n        nextId += 1;\r\n    }\r\n\r\n    // Vote for or against a proposal\r\n    function submitVote(uint _proposalId, bool _support) public {\r\n        Vote storage vote = voters[msg.sender].votes[_proposalId];\r\n        // Prevent voter from voting on same proposal more than once\r\n        require(vote.voted == false, 'You have already voted on this proposal.');\r\n        require(proposals[_proposalId].startTime + timeLimit > now, 'The voting period has expired.');\r\n\r\n        Voter memory voter = voters[msg.sender];\r\n        require(voters[msg.sender].delegated == false, 'You cannot vote if you have already delegated.');\r\n\r\n        if(voter.delegatees.length > 0) {\r\n            uint weight = msg.sender.balance;\r\n            for(uint i = 0; i < voter.delegatees.length; i++) {\r\n                weight += voter.delegatees[i].balance;\r\n            }\r\n            voters[msg.sender].weight = weight;\r\n        } else {\r\n            voters[msg.sender].weight = msg.sender.balance;\r\n        }\r\n\r\n        vote.voted = true;\r\n        vote.support = _support;\r\n\r\n        if(_support == true) {\r\n            proposals[_proposalId].voteWeightFor += voters[msg.sender].weight;\r\n        } else {\r\n            proposals[_proposalId].voteWeightAgainst += voters[msg.sender].weight;\r\n        }\r\n    }\r\n\r\n    // Show the result of a proposal\r\n    function result(uint _proposalId) public {\r\n        Proposal memory proposal = proposals[_proposalId];\r\n        // Ensure the proposal duration is complete\r\n        require((proposal.startTime + timeLimit) <= now, 'There is still time left in the proposal.');\r\n\r\n        if(proposal.voteWeightFor > proposal.voteWeightAgainst) {\r\n            proposals[_proposalId].result = true;\r\n        }\r\n        // If there is a draw, the proposal is not passed\r\n        if(proposal.voteWeightAgainst >= proposal.voteWeightFor) {\r\n            proposals[_proposalId].result = false;\r\n        }\r\n    }\r\n\r\n    function getProposalsLength() public view returns(uint) {\r\n        return proposals.length;\r\n    }\r\n}\r\n",
  "sourcePath": "C:/Users/kaden/Documents/code/governance-protocol/contracts/Governance.sol",
  "compiler": {
    "name": "solc",
    "version": "0.5.8+commit.23d335f2.Emscripten.clang"
  },
  "schemaVersion": "3.0.16",
  "updatedAt": "2019-10-17T19:05:58.383Z",
  "devdoc": {
    "methods": {},
    "title": "Governance Protocol"
  },
  "userdoc": {
    "methods": {}
  }
}