{
  "contractName": "Governance",
  "abi": [
    {
      "constant": true,
      "inputs": [
        {
          "name": "",
          "type": "uint256"
        }
      ],
      "name": "proposals",
      "outputs": [
        {
          "name": "name",
          "type": "string"
        },
        {
          "name": "id",
          "type": "uint256"
        },
        {
          "name": "voteWeightFor",
          "type": "uint256"
        },
        {
          "name": "voteWeightAgainst",
          "type": "uint256"
        },
        {
          "name": "startTime",
          "type": "uint256"
        },
        {
          "name": "result",
          "type": "bool"
        },
        {
          "name": "resulted",
          "type": "bool"
        }
      ],
      "payable": false,
      "stateMutability": "view",
      "type": "function"
    },
    {
      "constant": true,
      "inputs": [],
      "name": "timeLimit",
      "outputs": [
        {
          "name": "",
          "type": "uint256"
        }
      ],
      "payable": false,
      "stateMutability": "view",
      "type": "function"
    },
    {
      "constant": true,
      "inputs": [],
      "name": "token",
      "outputs": [
        {
          "name": "",
          "type": "address"
        }
      ],
      "payable": false,
      "stateMutability": "view",
      "type": "function"
    },
    {
      "inputs": [
        {
          "name": "_timeLimit",
          "type": "uint256"
        },
        {
          "name": "_token",
          "type": "address"
        }
      ],
      "payable": false,
      "stateMutability": "nonpayable",
      "type": "constructor"
    },
    {
      "constant": false,
      "inputs": [
        {
          "name": "_delegate",
          "type": "address"
        }
      ],
      "name": "delegate",
      "outputs": [],
      "payable": false,
      "stateMutability": "nonpayable",
      "type": "function"
    },
    {
      "constant": false,
      "inputs": [
        {
          "name": "_name",
          "type": "string"
        }
      ],
      "name": "submitProposal",
      "outputs": [],
      "payable": false,
      "stateMutability": "nonpayable",
      "type": "function"
    },
    {
      "constant": false,
      "inputs": [
        {
          "name": "_proposalId",
          "type": "uint256"
        },
        {
          "name": "_support",
          "type": "bool"
        }
      ],
      "name": "submitVote",
      "outputs": [],
      "payable": false,
      "stateMutability": "nonpayable",
      "type": "function"
    },
    {
      "constant": false,
      "inputs": [
        {
          "name": "_proposalId",
          "type": "uint256"
        }
      ],
      "name": "result",
      "outputs": [],
      "payable": false,
      "stateMutability": "nonpayable",
      "type": "function"
    },
    {
      "constant": true,
      "inputs": [],
      "name": "getProposalsLength",
      "outputs": [
        {
          "name": "",
          "type": "uint256"
        }
      ],
      "payable": false,
      "stateMutability": "view",
      "type": "function"
    }
  ],
  "bytecode": "0x608060405234801561001057600080fd5b5060405160408061143a8339810180604052604081101561003057600080fd5b81019080805190602001909291908051906020019092919050505081600481905550806000806101000a81548173ffffffffffffffffffffffffffffffffffffffff021916908373ffffffffffffffffffffffffffffffffffffffff1602179055505050611397806100a36000396000f3fe608060405234801561001057600080fd5b50600436106100885760003560e01c8063612c56fa1161005b578063612c56fa14610293578063bc378a73146102cd578063c08d1fe5146102eb578063fc0c546a1461030957610088565b8063013cf08b1461008d578063373d6d5e146101665780633c594059146102215780635c19a95c1461024f575b600080fd5b6100b9600480360360208110156100a357600080fd5b8101908080359060200190929190505050610353565b60405180806020018881526020018781526020018681526020018581526020018415151515815260200183151515158152602001828103825289818151815260200191508051906020019080838360005b8381101561012557808201518184015260208101905061010a565b50505050905090810190601f1680156101525780820380516001836020036101000a031916815260200191505b509850505050505050505060405180910390f35b61021f6004803603602081101561017c57600080fd5b810190808035906020019064010000000081111561019957600080fd5b8201836020820111156101ab57600080fd5b803590602001918460018302840111640100000000831117156101cd57600080fd5b91908080601f016020809104026020016040519081016040528093929190818152602001838380828437600081840152601f19601f820116905080830192505050505050509192919290505050610454565b005b61024d6004803603602081101561023757600080fd5b810190808035906020019092919050505061055a565b005b6102916004803603602081101561026557600080fd5b81019080803573ffffffffffffffffffffffffffffffffffffffff1690602001909291905050506107b3565b005b6102cb600480360360408110156102a957600080fd5b8101908080359060200190929190803515159060200190929190505050610980565b005b6102d56111ab565b6040518082815260200191505060405180910390f35b6102f36111b8565b6040518082815260200191505060405180910390f35b6103116111be565b604051808273ffffffffffffffffffffffffffffffffffffffff1673ffffffffffffffffffffffffffffffffffffffff16815260200191505060405180910390f35b6001818154811061036057fe5b9060005260206000209060060201600091509050806000018054600181600116156101000203166002900480601f01602080910402602001604051908101604052809291908181526020018280546001816001161561010002031660029004801561040c5780601f106103e15761010080835404028352916020019161040c565b820191906000526020600020905b8154815290600101906020018083116103ef57829003601f168201915b5050505050908060010154908060020154908060030154908060040154908060050160009054906101000a900460ff16908060050160019054906101000a900460ff16905087565b60016040518060e0016040528083815260200160035481526020016000815260200160008152602001428152602001600015158152602001600015158152509080600181540180825580915050906001820390600052602060002090600602016000909192909190915060008201518160000190805190602001906104da9291906111e3565b506020820151816001015560408201518160020155606082015181600301556080820151816004015560a08201518160050160006101000a81548160ff02191690831515021790555060c08201518160050160016101000a81548160ff021916908315150217905550505050600160036000828254019250508190555050565b610562611263565b6001828154811061056f57fe5b90600052602060002090600602016040518060e0016040529081600082018054600181600116156101000203166002900480601f0160208091040260200160405190810160405280929190818152602001828054600181600116156101000203166002900480156106215780601f106105f657610100808354040283529160200191610621565b820191906000526020600020905b81548152906001019060200180831161060457829003601f168201915b50505050508152602001600182015481526020016002820154815260200160038201548152602001600482015481526020016005820160009054906101000a900460ff161515151581526020016005820160019054906101000a900460ff16151515158152505090504260045482608001510111156106eb576040517f08c379a000000000000000000000000000000000000000000000000000000000815260040180806020018281038252602981526020018061131b6029913960400191505060405180910390fd5b60018083815481106106f957fe5b906000526020600020906006020160050160016101000a81548160ff02191690831515021790555080606001518160400151111561076857600180838154811061073f57fe5b906000526020600020906006020160050160006101000a81548160ff0219169083151502179055505b80604001518160600151106107af5760006001838154811061078657fe5b906000526020600020906006020160050160006101000a81548160ff0219169083151502179055505b5050565b60001515600260003373ffffffffffffffffffffffffffffffffffffffff1673ffffffffffffffffffffffffffffffffffffffff16815260200190815260200160002060030160009054906101000a900460ff1615151461087c576040517f08c379a000000000000000000000000000000000000000000000000000000000815260040180806020018281038252601b8152602001807f596f752063616e206f6e6c792064656c6567617465206f6e63652e000000000081525060200191505060405180910390fd5b6001600260003373ffffffffffffffffffffffffffffffffffffffff1673ffffffffffffffffffffffffffffffffffffffff16815260200190815260200160002060030160006101000a81548160ff021916908315150217905550600260008273ffffffffffffffffffffffffffffffffffffffff1673ffffffffffffffffffffffffffffffffffffffff1681526020019081526020016000206000013390806001815401808255809150509060018203906000526020600020016000909192909190916101000a81548173ffffffffffffffffffffffffffffffffffffffff021916908373ffffffffffffffffffffffffffffffffffffffff1602179055505050565b6000600260003373ffffffffffffffffffffffffffffffffffffffff1673ffffffffffffffffffffffffffffffffffffffff16815260200190815260200160002060020160008481526020019081526020016000209050600015158160020160009054906101000a900460ff16151514610a45576040517f08c379a00000000000000000000000000000000000000000000000000000000081526004018080602001828103825260288152602001806113446028913960400191505060405180910390fd5b4260045460018581548110610a5657fe5b9060005260206000209060060201600401540111610adc576040517f08c379a000000000000000000000000000000000000000000000000000000000815260040180806020018281038252601e8152602001807f54686520766f74696e6720706572696f642068617320657870697265642e000081525060200191505060405180910390fd5b610ae46112a4565b600260003373ffffffffffffffffffffffffffffffffffffffff1673ffffffffffffffffffffffffffffffffffffffff16815260200190815260200160002060405180606001604052908160008201805480602002602001604051908101604052809291908181526020018280548015610bb357602002820191906000526020600020905b8160009054906101000a900473ffffffffffffffffffffffffffffffffffffffff1673ffffffffffffffffffffffffffffffffffffffff1681526020019060010190808311610b69575b50505050508152602001600182015481526020016003820160009054906101000a900460ff161515151581525050905060001515600260003373ffffffffffffffffffffffffffffffffffffffff1673ffffffffffffffffffffffffffffffffffffffff16815260200190815260200160002060030160009054906101000a900460ff16151514610c8f576040517f08c379a000000000000000000000000000000000000000000000000000000000815260040180806020018281038252602e8152602001806112ed602e913960400191505060405180910390fd5b60008160000151511115610f5d5760008060009054906101000a900473ffffffffffffffffffffffffffffffffffffffff1673ffffffffffffffffffffffffffffffffffffffff166370a08231336040518263ffffffff1660e01b8152600401808273ffffffffffffffffffffffffffffffffffffffff1673ffffffffffffffffffffffffffffffffffffffff16815260200191505060206040518083038186803b158015610d3d57600080fd5b505afa158015610d51573d6000803e3d6000fd5b505050506040513d6020811015610d6757600080fd5b81019080805190602001909291905050509050600060055490505b826000015151811015610f08576002600084600001518381518110610da357fe5b602002602001015173ffffffffffffffffffffffffffffffffffffffff1673ffffffffffffffffffffffffffffffffffffffff168152602001908152602001600020600201600087815260200190815260200160002060020160009054906101000a900460ff16610f03576000809054906101000a900473ffffffffffffffffffffffffffffffffffffffff1673ffffffffffffffffffffffffffffffffffffffff166370a0823184600001518381518110610e5b57fe5b60200260200101516040518263ffffffff1660e01b8152600401808273ffffffffffffffffffffffffffffffffffffffff1673ffffffffffffffffffffffffffffffffffffffff16815260200191505060206040518083038186803b158015610ec357600080fd5b505afa158015610ed7573d6000803e3d6000fd5b505050506040513d6020811015610eed57600080fd5b8101908080519060200190929190505050820191505b610d82565b8060058190555081600260003373ffffffffffffffffffffffffffffffffffffffff1673ffffffffffffffffffffffffffffffffffffffff16815260200190815260200160002060010181905550505061107d565b6000809054906101000a900473ffffffffffffffffffffffffffffffffffffffff1673ffffffffffffffffffffffffffffffffffffffff166370a08231336040518263ffffffff1660e01b8152600401808273ffffffffffffffffffffffffffffffffffffffff1673ffffffffffffffffffffffffffffffffffffffff16815260200191505060206040518083038186803b158015610ffb57600080fd5b505afa15801561100f573d6000803e3d6000fd5b505050506040513d602081101561102557600080fd5b8101908080519060200190929190505050600260003373ffffffffffffffffffffffffffffffffffffffff1673ffffffffffffffffffffffffffffffffffffffff168152602001908152602001600020600101819055505b60018260020160006101000a81548160ff021916908315150217905550828260000160006101000a81548160ff02191690831515021790555060011515831515141561113657600260003373ffffffffffffffffffffffffffffffffffffffff1673ffffffffffffffffffffffffffffffffffffffff168152602001908152602001600020600101546001858154811061111357fe5b9060005260206000209060060201600201600082825401925050819055506111a5565b600260003373ffffffffffffffffffffffffffffffffffffffff1673ffffffffffffffffffffffffffffffffffffffff168152602001908152602001600020600101546001858154811061118657fe5b9060005260206000209060060201600301600082825401925050819055505b50505050565b6000600180549050905090565b60045481565b6000809054906101000a900473ffffffffffffffffffffffffffffffffffffffff1681565b828054600181600116156101000203166002900490600052602060002090601f016020900481019282601f1061122457805160ff1916838001178555611252565b82800160010185558215611252579182015b82811115611251578251825591602001919060010190611236565b5b50905061125f91906112c7565b5090565b6040518060e0016040528060608152602001600081526020016000815260200160008152602001600081526020016000151581526020016000151581525090565b604051806060016040528060608152602001600081526020016000151581525090565b6112e991905b808211156112e55760008160009055506001016112cd565b5090565b9056fe596f752063616e6e6f7420766f746520696620796f75206861766520616c72656164792064656c6567617465642e5468657265206973207374696c6c2074696d65206c65667420696e207468652070726f706f73616c2e596f75206861766520616c726561647920766f746564206f6e20746869732070726f706f73616c2ea165627a7a723058207a79ecd6f1462691ad190039a68056a882ed64711c9dc16572f33497891f9f8a0029",
  "source": "pragma solidity 0.5.8;\r\n\r\ninterface ERC20 {\r\n    function balanceOf(address guy) external view returns (uint);\r\n}\r\n\r\n/// @title Governance Protocol\r\ncontract Governance {\r\n    struct Proposal {\r\n        string name; // proposal name\r\n        uint id; // proposal id\r\n        uint voteWeightFor; // vote weight in support\r\n        uint voteWeightAgainst; // vote weight against\r\n        uint startTime; // start time since epoch\r\n        bool result; // result of proposal\r\n        bool resulted; // has someone called the result?\r\n    }\r\n\r\n    struct Vote {\r\n        bool support; // if true: for; if false: against\r\n        uint weight; // weight of vote\r\n        bool voted; // has the user voted for this proposal already?\r\n    }\r\n\r\n    struct Voter {\r\n        address[] delegatees; // voter that delegated weight to this address\r\n        uint weight; // based on amount of funds locked in contract\r\n        mapping(uint => Vote) votes; // map proposal id to vote\r\n        bool delegated; // has the voter already delegated?\r\n    }\r\n\r\n    // ERC20 token\r\n    ERC20 public token;\r\n\r\n    Proposal[] public proposals;\r\n    mapping(address => Voter) private voters;\r\n\r\n    // Next id to be used for proposals\r\n    uint private nextId;\r\n\r\n    // Time limit to vote on proposals (in seconds)\r\n    uint public timeLimit;\r\n\r\n    // Used for secure delegate voting weight inclusion\r\n    uint internal nextDelegateeIndex;\r\n\r\n    // Set time limit and token contract address\r\n    constructor(uint _timeLimit, address _token) public {\r\n        timeLimit = _timeLimit;\r\n        token = ERC20(_token);\r\n    }\r\n\r\n    // Pick a delegate to pass your voting weight on to\r\n    // Delegated voting power is only used for future votes\r\n    function delegate(address _delegate) public {\r\n        require(voters[msg.sender].delegated == false, 'You can only delegate once.');\r\n        voters[msg.sender].delegated = true;\r\n        voters[_delegate].delegatees.push(msg.sender);\r\n    }\r\n\r\n    // Submit a proposal for others to vote on\r\n    function submitProposal(string memory _name) public {\r\n        proposals.push(Proposal({\r\n            result: false,\r\n            name: _name,\r\n            id: nextId,\r\n            voteWeightFor: 0,\r\n            voteWeightAgainst: 0,\r\n            startTime: now,\r\n            resulted: false\r\n        }));\r\n        nextId += 1;\r\n    }\r\n\r\n    // Vote for or against a proposal\r\n    function submitVote(uint _proposalId, bool _support) public {\r\n        Vote storage vote = voters[msg.sender].votes[_proposalId];\r\n        // Prevent voter from voting on same proposal more than once\r\n        require(vote.voted == false, 'You have already voted on this proposal.');\r\n        require(proposals[_proposalId].startTime + timeLimit > now, 'The voting period has expired.');\r\n\r\n        Voter memory voter = voters[msg.sender];\r\n        require(voters[msg.sender].delegated == false, 'You cannot vote if you have already delegated.');\r\n\r\n        if(voter.delegatees.length > 0) {\r\n            uint weight = token.balanceOf(msg.sender);\r\n            uint i = nextDelegateeIndex;\r\n            while(i < voter.delegatees.length) {\r\n                // Only add delegatee weight if they haven't yet voted on this proposal\r\n                if(!voters[voter.delegatees[i]].votes[_proposalId].voted) {\r\n                    weight += token.balanceOf(voter.delegatees[i]);\r\n                }\r\n            }\r\n            nextDelegateeIndex = i;\r\n            voters[msg.sender].weight = weight;\r\n        } else {\r\n            voters[msg.sender].weight = token.balanceOf(msg.sender);\r\n        }\r\n\r\n        vote.voted = true;\r\n        vote.support = _support;\r\n\r\n        if(_support == true) {\r\n            proposals[_proposalId].voteWeightFor += voters[msg.sender].weight;\r\n        } else {\r\n            proposals[_proposalId].voteWeightAgainst += voters[msg.sender].weight;\r\n        }\r\n    }\r\n\r\n    // Show the result of a proposal\r\n    function result(uint _proposalId) public {\r\n        Proposal memory proposal = proposals[_proposalId];\r\n        // Ensure the proposal duration is complete\r\n        require((proposal.startTime + timeLimit) <= now, 'There is still time left in the proposal.');\r\n\r\n        proposals[_proposalId].resulted = true;\r\n\r\n        if(proposal.voteWeightFor > proposal.voteWeightAgainst) {\r\n            proposals[_proposalId].result = true;\r\n        }\r\n        // If there is a draw, the proposal is not passed\r\n        if(proposal.voteWeightAgainst >= proposal.voteWeightFor) {\r\n            proposals[_proposalId].result = false;\r\n        }\r\n    }\r\n\r\n    function getProposalsLength() public view returns(uint) {\r\n        return proposals.length;\r\n    }\r\n}\r\n",
  "sourcePath": "C:/Users/kaden/Documents/code/governance-protocol/contracts/Governance.sol",
  "compiler": {
    "name": "solc",
    "version": "0.5.8+commit.23d335f2.Emscripten.clang"
  },
  "schemaVersion": "3.0.17",
  "updatedAt": "2020-01-31T18:35:13.059Z",
  "networkType": "ethereum",
  "devdoc": {
    "methods": {},
    "title": "Governance Protocol"
  },
  "userdoc": {
    "methods": {}
  }
}